:0300000002086F84
:0C086F00787FE4F6D8FD7581740208B6AD
:100026004D4F444255532046554E433A30344800CE
:100036004E4F57204745542053544152540052487E
:10004600282529202020202000545028432920201C
:1000560020202000000000C100810040000100C0F7
:1000660000800041000100C000800041000000C186
:1000760000810040000100C000800041000000C176
:1000860000810040000000C100810040000100C066
:1000960000800041000100C000800041000000C156
:1000A60000810040000000C100810040000100C046
:1000B60000800041000000C100810040000100C036
:1000C60000800041000100C000800041000000C126
:1000D60000810040000100C000800041000000C116
:1000E60000810040000000C100810040000100C006
:1000F60000800041000000C100810040000100C0F6
:1001060000800041000100C000800041000000C1E5
:1001160000810040000000C100810040000100C0D5
:1001260000800041000100C000800041000000C1C5
:1001360000810040000100C000800041000000C1B5
:1001460000810040000000C100810040000100C0A5
:1001560000800041000100C000800041000000C195
:1001660000810040000000C100810040000100C085
:1001760000800041000000C100810040000100C075
:1001860000800041000100C000800041000000C165
:1001960000810040000000C100810040000100C055
:1001A60000800041000100C000800041000000C145
:1001B60000810040000100C000800041000000C135
:1001C60000810040000000C100810040000100C025
:1001D60000800041000000C100810040000100C015
:1001E60000800041000100C000800041000000C105
:1001F60000810040000100C000800041000000C1F5
:1002060000810040000000C100810040000100C0E4
:1002160000800041000100C000800041000000C1D4
:1002260000810040000000C100810040000100C0C4
:1002360000800041000000C100810040000100C0B4
:1002460000800041000100C000800041000000C1A4
:1002560000810040000000C000C1000100C300038F
:10026600000200C200C60006000700C7000500C560
:1002760000C4000400CC000C000D00CD000F00CF20
:1002860000CE000E000A00CA00CB000B00C9000910
:10029600000800C800D80018001900D9001B00DBB0
:1002A60000DA001A001E00DE00DF001F00DD001D60
:1002B600001C00DC001400D400D5001500D7001780
:1002C600001600D600D20012001300D3001100D190
:1002D60000D0001000F00030003100F1003300F3D0
:1002E60000F20032003600F600F7003700F5003560
:1002F600003400F4003C00FC00FD003D00FF003F20
:10030600003E00FE00FA003A003B00FB003900F90F
:1003160000F80038002800E800E9002900EB002B6F
:10032600002A00EA00EE002E002F00EF002D00ED5F
:1003360000EC002C00E40024002500E5002700E77F
:1003460000E60026002200E200E3002300E100218F
:10035600002000E000A00060006100A1006300A38F
:1003660000A20062006600A600A7006700A500655F
:10037600006400A4006C00AC00AD006D00AF006F1F
:10038600006E00AE00AA006A006B00AB006900A90F
:1003960000A80068007800B800B9007900BB007BAF
:1003A600007A00BA00BE007E007F00BF007D00BD5F
:1003B60000BC007C00B40074007500B5007700B77F
:1003C60000B60076007200B200B3007300B100718F
:1003D600007000B00050009000910051009300534F
:1003E600005200920096005600570097005500955F
:1003F60000940054009C005C005D009D005F009F1F
:10040600009E005E005A009A009B005B009900590E
:10041600005800980088004800490089004B008B6E
:10042600008A004A004E008E008F004F008D004D5E
:10043600004C008C0044008400850045008700477E
:10044600004600860082004200430083004100818E
:0404560000800040E2
:100AEC00063A0104000000030C21202020202020C5
:100AFC002020202020000C2D202020202020202011
:040B0C002020200085
:10045A00E4F557F558D2B5C200D2A0F555F554F5D2
:10046A0059F55A7440255AF8E4F6055AE55A7002C5
:10047A000559640A455970EBE4F559F55A744C2547
:10048A005AF8E4F6055AE55A7002055964084559BE
:10049A0070EB120B65120A21120BA87BFF7A007906
:1004AA0026E4FD7F01120AAF7BFF7A0079367D01CF
:1004BA007F02120AAF120BB774FFF54AF54BE54BF0
:1004CA00154BAE4A7002154A4E70F374FFF54AF5A1
:1004DA004BE54B154BAE4A7002154A4E70F37BFF43
:1004EA007A007944FDFF120AAF7BFF7A00794F7DCB
:1004FA0001E4FF120AAF120B11D201D202D2B7C223
:10050A00A13001FB3002F8854357854458E5402461
:10051A00FE70030206001470030206D1240260036F
:10052A0002079FE55775F00A842430F522E55775CE
:10053A00F00A84E5F02430F523E55875F00A84249E
:10054A0030F52EE55875F00A84E5F02430F52FE5EC
:10055A002ED39432500CE52EB4320BE52FC39439C6
:10056A004004C2A5804FE52EB4320FE52FB4360AF7
:10057A00D2A5D2A0D2A1C2A3804BE52EB4320BE5FC
:10058A002FC394374004C2A5800EE52EB43211E57C
:10059A002FD39435500AC2A0C2A4D2A1D2A38025D7
:1005AA00E52EC39432400CE52EB43213E52FD394D2
:1005BA0033500CC2A0C2A1C2A2D2A4D2A38006D236
:1005CA00A5D2A0D2A1E522B4360AE523B43005D2D9
:1005DA00A702079FE522B43507E523D39438400CD8
:1005EA00E522B4360CE523C394324005C2A70207BC
:1005FA009FD2A702079FE55775F00A842430F52693
:10060A00E55775F00A84E5F02430F527E55875F0CA
:10061A000A842430F532E55875F00A84E5F024306E
:10062A00F533E532D39432500CE532B4320BE5336C
:10063A00C394394004C2A5804DE532B4320FE53384
:10064A00B4360AD2A5D2A0D2A1C2A38049E532B457
:10065A00320BE533C394374004C2A5800CE533B4AA
:10066A00320FD39435500AC2A0C2A4D2A1D2A38019
:10067A0025E532C39432400CE532B43213E533D364
:10068A009433500CC2A0C2A1C2A2D2A4D2A38006A3
:10069A00D2A5D2A0D2A1E526B4360AE527B4300500
:1006AA00D2A702079FE526B43507E527D394384039
:1006BA000CE526B4360CE527C394324005C2A702DE
:1006CA00079FD2A702079FE55775F00A842430F5E1
:1006DA002AE55775F00A84E5F02430F52BE55875BC
:1006EA00F00A842430F536E55875F00A84E5F024DA
:1006FA0030F537E536D39432500CE536B4320BE593
:10070A0037C394394004C2A5804FE536B4320FE5A9
:10071A0037B4360AD2A5D2A0D2A1C2A3804BE536FD
:10072A00B4320BE537C394374004C2A5800EE536D0
:10073A00B43211E537D39435500AC2A0C2A4D2A16B
:10074A00D2A38025E536C39432400CE536B4321381
:10075A00E537D39433500CC2A0C2A1C2A2D2A4D20C
:10076A00A38006D2A5D2A0D2A1E52AB43609E52BE8
:10077A00B43004D2A7801EE52AB43507E52BD394FA
:10078A0038400CE52AB4360BE52BC394324004C238
:10079A00A78002D2A77B007A007921E4FD7F0512A7
:1007AA000AAF7B007A00792D7D017F05120AAF75A9
:1007BA004A03754BFFE54B154BAE4A7002154A4E7C
:1007CA0070F3D2B7C2B5AF540554EF04F53AE55405
:1007DA0075F0038485F0547B007A00793A7D067CB3
:1007EA00001208FBAD07AC06E4F559F55AAF5A7486
:1007FA003A2FF8E6FE744C2FF8A606055AE55A7009
:10080A000205596406455970E4ECF552EDF5537545
:10081A004A03754BFFE54B154BAE4A7002154A4E1B
:10082A0070F3F559F55A744C255AF8E6F556FF7ED9
:10083A0000120003055AE55A70020559C39408E5E7
:10084A00596480948040DFC201C202754A03754B25
:10085A00FFE54B154BAE4A7002154A4E70F3C2B70C
:05086A00D2B5020509F2
:03000B0002000EE2
:10000E00C0E0C0D00555E555B40505D201755500C3
:05001E00D0D0D0E0325B
:03002300020A6965
:100A6900C0E0C0F0C083C082C0D075D000C000C053
:0D0A790001C002C003C004C005C006C007D4
:0E0A8600309809C298AF991209D98002C2991E
:100A9400D007D006D005D004D003D002D001D000B6
:0B0AA400D0D0D082D083D0F0D0E03260
:1009D90020000DEF653A703FD2007539018F402232
:1009E900E539C3940B500BAE39053974402EF8A67E
:1009F9000722E4F539C200FB7A0079407D09FC122F
:100A090008FBAD07AC06AF49EFFEE54AFFEDB507B8
:070A190006ECB50602D20253
:010A200022B3
:080003008F993099FDC299228A
:100B1100758920759850758DFE858D8BE4F587D28A
:0D0B2100AFD2ACD28E438901D2A9D28C2272
:0A08FB008B688A69896A8C6B8D6C2A
:10090500756D00756EFF756F007570FFE56C156C84
:10091500AE6B7002156B4E6060AB68056AE56AAA3E
:10092500697002056914F9120987FB7A00E56DFE05
:10093500E56E6BFFE48F748E73F572F57190005A56
:1009450075F002EF1209CDE57325E02583F583E403
:1009550093656FF56D7401936570F56E90025A7528
:10096500F002EF1209CDE57325E02583F583E493C5
:10097500F56F740193F5708093E56E456FFEE57034
:01098500FF72
:01098600224E
:100B7E008F62120B93856290D2B2C2B3C2B4C2B46A
:050B8E00C2B4D2B42244
:040B4A007D017C00AD
:100B4E008F62ED4C6003120B93856290C2B2C2B3FA
:070B5E00C2B4C2B4D2B422FC
:0D0BB700D2B2D2B3C2B4C2B4D2B4AF902255
:100B93007590FFC2B2D2B3C2B4C2B4D2B4E590204E
:050BA300E7FBAF90220A
:100A2100E4F590FDFC7F38120B4E120BA8E4FDFC9F
:100A31007F38120B4E120BA8E4FDFC7F38120B4ECF
:100A4100120BA87F38120B4A7F08120B4A7D017CDA
:100A5100007F01120B4E7D017C007F06120B4E7D43
:080A6100017C007F0C020B4E2A
:100B2E008B6153050153070FED60034307404307E5
:0C0B3E0080E4FDFC120B4EAF61020B7E48
:0A0AAF008F5B8D5C8B5D8A5E895FB2
:100AB900E4F560535C01535B0FAB5DAA5EA95F85EA
:100AC90060827583001209A0FBC394204014E55B82
:100AD900D3940F50E4AD5CAF5B120B2E0560055B40
:020AE90080D7B4
:010AEB0022E8
:0E0BA8007FB07E15EF1FAC0670011E4C70F67C
:010BB600221C
:100B65007D05AC051DEC60107E1C7F65EF1FAA0698
:080B750070011E4A60EC80F4DF
:010B7D002255
:10087B0002045AE493A3F8E493A34003F68001F235
:10088B0008DFF48029E493A3F85407240CC8C3337E
:10089B00C4540F4420C8834004F456800146F6DF4D
:1008AB00E4800B0102040810204080900AECE47EE7
:1008BB00019360BCA3FF543F30E509541FFEE49342
:1008CB00A360010ECF54C025E060A840B8E493A309
:1008DB00FAE493A3F8E493A3C8C582C8CAC583CA34
:1008EB00F0A3C8C582C8CAC583CADFE9DEE780BEEC
:010B100000E4
:10098700BB010689828A83E0225002E722BBFE026E
:09099700E32289828A83E49322A1
:1009A000BB010CE58229F582E5833AF583E022500C
:1009B00006E92582F8E622BBFE06E92582F8E22256
:0D09C000E58229F582E5833AF583E4932270
:0C09CD00A42582F582E5F03583F5832235
:00000001FF
