:0300000002067D78
:0C067D00787FE4F6D8FD7581740206C495
:100026004D4F444255532046554E433A30344800CE
:100036004E4F57204745542053544152540052487E
:10004600282529202020202000545028432920201C
:1000560020202000000000C100810040000100C0F7
:1000660000800041000100C000800041000000C186
:1000760000810040000100C000800041000000C176
:1000860000810040000000C100810040000100C066
:1000960000800041000100C000800041000000C156
:1000A60000810040000000C100810040000100C046
:1000B60000800041000000C100810040000100C036
:1000C60000800041000100C000800041000000C126
:1000D60000810040000100C000800041000000C116
:1000E60000810040000000C100810040000100C006
:1000F60000800041000000C100810040000100C0F6
:1001060000800041000100C000800041000000C1E5
:1001160000810040000000C100810040000100C0D5
:1001260000800041000100C000800041000000C1C5
:1001360000810040000100C000800041000000C1B5
:1001460000810040000000C100810040000100C0A5
:1001560000800041000100C000800041000000C195
:1001660000810040000000C100810040000100C085
:1001760000800041000000C100810040000100C075
:1001860000800041000100C000800041000000C165
:1001960000810040000000C100810040000100C055
:1001A60000800041000100C000800041000000C145
:1001B60000810040000100C000800041000000C135
:1001C60000810040000000C100810040000100C025
:1001D60000800041000000C100810040000100C015
:1001E60000800041000100C000800041000000C105
:1001F60000810040000100C000800041000000C1F5
:1002060000810040000000C100810040000100C0E4
:1002160000800041000100C000800041000000C1D4
:1002260000810040000000C100810040000100C0C4
:1002360000800041000000C100810040000100C0B4
:1002460000800041000100C000800041000000C1A4
:1002560000810040000000C000C1000100C300038F
:10026600000200C200C60006000700C7000500C560
:1002760000C4000400CC000C000D00CD000F00CF20
:1002860000CE000E000A00CA00CB000B00C9000910
:10029600000800C800D80018001900D9001B00DBB0
:1002A60000DA001A001E00DE00DF001F00DD001D60
:1002B600001C00DC001400D400D5001500D7001780
:1002C600001600D600D20012001300D3001100D190
:1002D60000D0001000F00030003100F1003300F3D0
:1002E60000F20032003600F600F7003700F5003560
:1002F600003400F4003C00FC00FD003D00FF003F20
:10030600003E00FE00FA003A003B00FB003900F90F
:1003160000F80038002800E800E9002900EB002B6F
:10032600002A00EA00EE002E002F00EF002D00ED5F
:1003360000EC002C00E40024002500E5002700E77F
:1003460000E60026002200E200E3002300E100218F
:10035600002000E000A00060006100A1006300A38F
:1003660000A20062006600A600A7006700A500655F
:10037600006400A4006C00AC00AD006D00AF006F1F
:10038600006E00AE00AA006A006B00AB006900A90F
:1003960000A80068007800B800B9007900BB007BAF
:1003A600007A00BA00BE007E007F00BF007D00BD5F
:1003B60000BC007C00B40074007500B5007700B77F
:1003C60000B60076007200B200B3007300B100718F
:1003D600007000B00050009000910051009300534F
:1003E600005200920096005600570097005500955F
:1003F60000940054009C005C005D009D005F009F1F
:10040600009E005E005A009A009B005B009900590E
:10041600005800980088004800490089004B008B6E
:10042600008A004A004E008E008F004F008D004D5E
:10043600004C008C0044008400850045008700477E
:10044600004600860082004200430083004100818E
:0404560000800040E2
:1008FA00063A0104000000030C21202020202020B9
:10090A002020202020000C2D202020202020202004
:04091A002020200079
:10045A00E4F557F558D2B5C200F555F554F559F5F6
:10046A005A7440255AF8E4F6055AE55A70020559B5
:10047A00640A455970EBE4F559F55A744C255AF853
:10048A00E4F6055AE55A700205596408455970EBB5
:10049A0012097312082F1209B67BFF7A007926E433
:1004AA00FD7F011208BD7BFF7A0079367D017F024C
:1004BA001208BD1209C574FFF54AF54BE54B154BF9
:1004CA00AE4A7002154A4E70F374FFF54AF54BE5D1
:1004DA004B154BAE4A7002154A4E70F37BFF7A00F9
:1004EA007944E4FDFF1208BD7BFF7A00794F7D0154
:1004FA00E4FF1208BD12091FD201D202D2B730019D
:10050A00FD3002FA854357854458E54024FE603899
:10051A00146063240260030205ACE55775F00A848F
:10052A002430F522E55775F00A84E5F02430F523E6
:10053A00E55875F00A842430F52EE55875F00A84DA
:10054A00E5F02430F52F805AE55775F00A842430F7
:10055A00F526E55775F00A84E5F02430F527E558C5
:10056A0075F00A842430F532E55875F00A84E5F00E
:10057A002430F533802CE55775F00A842430F52AA7
:10058A00E55775F00A84E5F02430F52BE55875F047
:10059A000A842430F536E55875F00A84E5F02430EB
:1005AA00F5377B007A007921E4FD7F051208BD7BCF
:1005BA00007A00792D7D017F051208BD754A037501
:1005CA004BFFE54B154BAE4A7002154A4E70F3D2FB
:1005DA00B7C2B5AF540554EF04F53AE55475F003C4
:1005EA008485F0547B007A00793A7D067C001207F4
:1005FA0009AD07AC06E4F559F55AAF5A743A2FF823
:10060A00E6FE744C2FF8A606055AE55A70020559FB
:10061A006406455970E4ECF552EDF553754A0375D5
:10062A004BFFE54B154BAE4A7002154A4E70F3E488
:10063A00F559F55A744C255AF8E6F556FF7E00121C
:10064A000003055AE55A70020559C39408E559642E
:10065A0080948040DFC201C202754A03754BFFE5F0
:10066A004B154BAE4A7002154A4E70F3C2B7D2B55B
:03067A000205086E
:03000B0002000EE2
:10000E00C0E0C0D00555E555B40505D201755500C3
:05001E00D0D0D0E0325B
:0300230002087759
:10087700C0E0C0F0C083C082C0D075D000C000C047
:0D08870001C002C003C004C005C006C007C8
:0E089400309809C298AF991207E78002C29906
:1008A200D007D006D005D004D003D002D001D000AA
:0B08B200D0D0D082D083D0F0D0E03254
:1007E70020000DEF653A703FD2007539018F402226
:1007F700E539C3940B500BAE39053974402EF8A672
:100807000722E4F539C200FB7A0079407D09FC1222
:100817000709AD07AC06AF49EFFEE54AFFEDB5079F
:0708270006ECB50602D20247
:01082E0022A7
:080003008F993099FDC299228A
:10091F00758920759850758DFE858D8BE4F587D27E
:0D092F00AFD2ACD28E438901D2A9D28C2266
:0A0709008B688A69896A8C6B8D6C1D
:10071300756D00756EFF756F007570FFE56C156C78
:10072300AE6B7002156B4E6060AB68056AE56AAA32
:10073300697002056914F9120795FB7A00E56DFEED
:10074300E56E6BFFE48F748E73F572F57190005A4A
:1007530075F002EF1207DBE57325E02583F583E4EB
:1007630093656FF56D7401936570F56E90025A751C
:10077300F002EF1207DBE57325E02583F583E493AD
:10078300F56F740193F5708093E56E456FFEE57028
:01079300FF66
:010794002242
:10098C008F621209A1856290D2B2C2B3C2B4C2B452
:05099C00C2B4D2B42238
:040958007D017C00A1
:10095C008F62ED4C60031209A1856290C2B2C2B3E2
:07096C00C2B4C2B4D2B422F0
:0D09C500D2B2D2B3C2B4C2B4D2B4AF902249
:1009A1007590FFC2B2D2B3C2B4C2B4D2B4E5902042
:0509B100E7FBAF9022FE
:10082F00E4F590FDFC7F3812095C1209B6E4FDFC7B
:10083F007F3812095C1209B6E4FDFC7F3812095C9F
:10084F001209B67F381209587F081209587D017CAA
:10085F00007F0112095C7D017C007F0612095C7D1F
:08086F00017C007F0C02095C12
:10093C008B6153050153070FED60034307404307D9
:0C094C0080E4FDFC12095CAF6102098C24
:0A08BD008F5B8D5C8B5D8A5E895FA6
:1008C700E4F560535C01535B0FAB5DAA5EA95F85DE
:1008D70060827583001207AEFBC394204014E55B6A
:1008E700D3940F50E4AD5CAF5B12093C0560055B28
:0208F70080D7A8
:0108F90022DC
:0E09B6007FB07E15EF1FAC0670011E4C70F670
:0109C4002210
:100973007D05AC051DEC60107E1C7F65EF1FAA068C
:0809830070011E4A60EC80F4D3
:01098B002249
:1006890002045AE493A3F8E493A34003F68001F229
:1006990008DFF48029E493A3F85407240CC8C33372
:1006A900C4540F4420C8834004F456800146F6DF41
:1006B900E4800B01020408102040809008FAE47ECF
:1006C900019360BCA3FF543F30E509541FFEE49336
:1006D900A360010ECF54C025E060A840B8E493A3FD
:1006E900FAE493A3F8E493A3C8C582C8CAC583CA28
:1006F900F0A3C8C582C8CAC583CADFE9DEE780BEE0
:01091E0000D8
:10079500BB010689828A83E0225002E722BBFE0262
:0907A500E32289828A83E4932295
:1007AE00BB010CE58229F582E5833AF583E0225000
:1007BE0006E92582F8E622BBFE06E92582F8E2224A
:0D07CE00E58229F582E5833AF583E4932264
:0C07DB00A42582F582E5F03583F5832229
:00000001FF
