:030000000205589E
:0C055800787FE4F6D8FD75817502059FE0
:10002600000000C100810040000100C000800041C6
:10003600000100C000800041000000C100810040B6
:10004600000100C000800041000000C100810040A6
:10005600000000C100810040000100C00080004196
:10006600000100C000800041000000C10081004086
:10007600000000C100810040000100C00080004176
:10008600000000C100810040000100C00080004166
:10009600000100C000800041000000C10081004056
:1000A600000100C000800041000000C10081004046
:1000B600000000C100810040000100C00080004136
:1000C600000000C100810040000100C00080004126
:1000D600000100C000800041000000C10081004016
:1000E600000000C100810040000100C00080004106
:1000F600000100C000800041000000C100810040F6
:10010600000100C000800041000000C100810040E5
:10011600000000C100810040000100C000800041D5
:10012600000100C000800041000000C100810040C5
:10013600000000C100810040000100C000800041B5
:10014600000000C100810040000100C000800041A5
:10015600000100C000800041000000C10081004095
:10016600000000C100810040000100C00080004185
:10017600000100C000800041000000C10081004075
:10018600000100C000800041000000C10081004065
:10019600000000C100810040000100C00080004155
:1001A600000000C100810040000100C00080004145
:1001B600000100C000800041000000C10081004035
:1001C600000100C000800041000000C10081004025
:1001D600000000C100810040000100C00080004115
:1001E600000100C000800041000000C10081004005
:1001F600000000C100810040000100C000800041F5
:10020600000000C100810040000100C000800041E4
:10021600000100C000800041000000C100810040D4
:10022600000000C000C1000100C30003000200C2BC
:1002360000C60006000700C7000500C500C400048C
:1002460000CC000C000D00CD000F00CF00CE000E3C
:10025600000A00CA00CB000B00C90009000800C84C
:1002660000D80018001900D9001B00DB00DA001ABC
:10027600001E00DE00DF001F00DD001D001C00DC8C
:10028600001400D400D5001500D70017001600D6BC
:1002960000D20012001300D3001100D100D00010CC
:1002A60000F00030003100F1003300F300F20032BC
:1002B600003600F600F7003700F50035003400F48C
:1002C600003C00FC00FD003D00FF003F003E00FE3C
:1002D60000FA003A003B00FB003900F900F800384C
:1002E600002800E800E9002900EB002B002A00EABC
:1002F60000EE002E002F00EF002D00ED00EC002C8C
:1003060000E40024002500E5002700E700E60026BB
:10031600002200E200E3002300E10021002000E0CB
:1003260000A00060006100A1006300A300A20062BB
:10033600006600A600A7006700A50065006400A48B
:10034600006C00AC00AD006D00AF006F006E00AE3B
:1003560000AA006A006B00AB006900A900A800684B
:10036600007800B800B9007900BB007B007A00BABB
:1003760000BE007E007F00BF007D00BD00BC007C8B
:1003860000B40074007500B5007700B700B60076BB
:10039600007200B200B3007300B10071007000B0CB
:1003A60000500090009100510093005300520092BB
:1003B600009600560057009700550095009400548B
:1003C600009C005C005D009D005F009F009E005E3B
:1003D600005A009A009B005B00990059005800984B
:1003E6000088004800490089004B008B008A004ABB
:1003F600004E008E008F004F008D004D004C008C8B
:1004060000440084008500450087004700460086BA
:1004160000820042004300830041008100800040CA
:0E080700012100092D00040600000000000081
:1007DA00D3EF9400EE9400400DE4FD0DBD1BFCEF39
:0607EA001F70ED1E80EA05
:0107F00022E6
:0C081600155C155C155C155C155C155C30
:0108220022B3
:10077200E4FF752902209007AE290529EE70F612D2
:100782000816120816120816E4F53730900375376A
:1007920001752902309007AE290529EE70F6E52988
:1007A2006401600EE55625E0F556E53742560FBF67
:0207B20008C07D
:0107B4002222
:10067000C2907FB47E001207DAD2901208161208D8
:1006800016120816120816D29020905675290220CC
:100690009007AF290529EF70F6752902309007AF52
:1006A000290529EF70F612077285565212077285D6
:1006B0005653120772855625120772855626120761
:1006C00072855636D290E525252625522553F537D5
:1006D000B5360F85523885533985252385262485DF
:0306E000362B2294
:10042600E4F55875590BD296C202C200F555F5513E
:10043600F55AF55B743A255BF8E4F6055BE55B7007
:1004460002055A640A455A70EBE4F55AF55B7446A0
:10045600255BF8E4F6055BE55B7002055A640B451F
:100466005A70EB20B3047F0180027F008F28E528B5
:1004760025E0F52820B2047F0180027F00EF4228A4
:1004860085282D1207F1C201C2B43002FDC29605BD
:1004960059E559D394034014E4F559C28E120670F7
:1004A6007FB47E001207DA120670D28E8538308548
:1004B6002331E4F55AF55BAF5B742D2FF8E6FE7435
:1004C600462FF8A606055BE55B7002055A640945EA
:1004D6005A70E47B007A00792D7D097C001205E4D0
:1004E600AC06ECF54FEFF55075443F7545FFE54515
:1004F6001545AE44700215444E70F3D2B4754403EC
:100506007545FFE5451545AE44700215444E70F33A
:10051600E4F55AF55B7446255BF8E6F557FF7E0071
:10052600120003055BE55B7002055AC3940BE55A9E
:100536006480948040DFC2027544037545FFE5453B
:100546001545AE44700215444E70F3C2B4D29602FD
:0205560004900F
:0A05E4008B698A6A896B8C6C8D6D3F
:1005EE00756E00756FFF7570007571FFE56D156D99
:1005FE00AE6C7002156C4E6060AB69056BE56BAA54
:10060E006A7002056A14F91207B5FB7A00E56EFEF0
:10061E00E56F6BFFE48F758E74F573F5729000269F
:10062E0075F002EF1207CEE57425E02583F583E41D
:10063E00936570F56E7401936571F56F9002267572
:10064E00F002EF1207CEE57425E02583F583E493DF
:10065E00F570740193F5718093E56F4570FEE57149
:01066E00FF8C
:01066F002268
:03000B0002000EE2
:10000E00C0E0C0D00555E555B43203755500D0D0CB
:03001E00D0E032FD
:030023000206E3EF
:1006E300C0E0C0F0C083C082C0D075D000C000C0DD
:1006F30001C002C003C004C005C006C00730980C87
:10070300C298859922AF2212072C8002C299D00782
:10071300D006D005D004D003D002D001D000D0D071
:09072300D082D083D0F0D0E03286
:10072C00200010EF6528703DD2007551078F3A7587
:10073C00270122AE270527743A2EF8A607E5276471
:10074C00087022C200FB7A00793A7D06FC1205E49F
:10075C00AD07AC06AF40EFFEE541FFEDB50706EC8B
:05076C00B50602D202F7
:010771002265
:080003008F993099FDC299228A
:1007F100758920759850758DFE858D8BE4F587D2AE
:06080100AFD2ACD28E2242
:06082300000000000022AD
:10056400020426E493A3F8E493A34003F68001F283
:1005740008DFF48029E493A3F85407240CC8C33398
:10058400C4540F4420C8834004F456800146F6DF67
:10059400E4800B0102040810204080900807E47EE8
:1005A400019360BCA3FF543F30E509541FFEE4935C
:1005B400A360010ECF54C025E060A840B8E493A323
:1005C400FAE493A3F8E493A3C8C582C8CAC583CA4E
:1005D400F0A3C8C582C8CAC583CADFE9DEE780BE06
:0108150000E2
:1007B500BB010689828A83E0225002E722BBFE0242
:0907C500E32289828A83E4932275
:0C07CE00A42582F582E5F03583F5832236
:00000001FF
